{
  "contractName": "Auction",
  "abi": [
    {
      "inputs": [],
      "name": "placeBid",
      "outputs": [
        {
          "internalType": "uint256",
          "name": "",
          "type": "uint256"
        }
      ],
      "stateMutability": "nonpayable",
      "type": "function"
    },
    {
      "inputs": [],
      "name": "removeBid",
      "outputs": [
        {
          "internalType": "uint256",
          "name": "",
          "type": "uint256"
        }
      ],
      "stateMutability": "nonpayable",
      "type": "function"
    }
  ],
  "bytecode": "0x608060405234801561001057600080fd5b5060af8061001f6000396000f3fe6080604052348015600f57600080fd5b506004361060325760003560e01c8063a479bc29146037578063ecfc7ecc146053575b600080fd5b603d606f565b6040518082815260200191505060405180910390f35b60596074565b6040518082815260200191505060405180910390f35b600090565b60009056fea264697066735822122063d39516581e15d273683c1bb0a00ddb1cc2cff49fa790a6a210166ec284262d64736f6c63430006020033",
  "source": "pragma solidity ^0.6.2;\n\n\ncontract Auction {\n    enum AuctionState {Bidding, Cancelled, Finalized}\n\n    function placeBid() public returns (uint) {}\n\n    function removeBid() public returns (uint) {}\n}\n",
  "sourcePath": "/Users/andytcf/consensys-final-project/contracts/Auction.sol",
  "compiler": {
    "name": "solc",
    "version": "0.6.2+commit.bacdbe57.Emscripten.clang"
  },
  "schemaVersion": "3.3.0",
  "updatedAt": "2020-11-28T05:39:45.743Z",
  "devdoc": {
    "methods": {}
  },
  "userdoc": {
    "methods": {}
  }
}