{
  "contractName": "Registry",
  "abi": [
    {
      "inputs": [],
      "stateMutability": "nonpayable",
      "type": "constructor"
    },
    {
      "anonymous": false,
      "inputs": [
        {
          "indexed": false,
          "internalType": "uint256",
          "name": "amount",
          "type": "uint256"
        },
        {
          "indexed": true,
          "internalType": "address",
          "name": "sender",
          "type": "address"
        }
      ],
      "name": "FundsDeposited",
      "type": "event"
    },
    {
      "anonymous": false,
      "inputs": [
        {
          "indexed": false,
          "internalType": "uint256",
          "name": "amount",
          "type": "uint256"
        },
        {
          "indexed": true,
          "internalType": "address",
          "name": "withdrawer",
          "type": "address"
        }
      ],
      "name": "FundsWithdrawn",
      "type": "event"
    },
    {
      "anonymous": false,
      "inputs": [
        {
          "indexed": true,
          "internalType": "address",
          "name": "previousOwner",
          "type": "address"
        },
        {
          "indexed": true,
          "internalType": "address",
          "name": "newOwner",
          "type": "address"
        }
      ],
      "name": "OwnershipTransferred",
      "type": "event"
    },
    {
      "anonymous": false,
      "inputs": [
        {
          "indexed": false,
          "internalType": "address",
          "name": "account",
          "type": "address"
        }
      ],
      "name": "Paused",
      "type": "event"
    },
    {
      "anonymous": false,
      "inputs": [
        {
          "indexed": true,
          "internalType": "uint256",
          "name": "registryId",
          "type": "uint256"
        },
        {
          "indexed": false,
          "internalType": "uint256",
          "name": "price",
          "type": "uint256"
        }
      ],
      "name": "RealtyPriceUpdated",
      "type": "event"
    },
    {
      "anonymous": false,
      "inputs": [
        {
          "indexed": true,
          "internalType": "uint256",
          "name": "registryId",
          "type": "uint256"
        },
        {
          "indexed": false,
          "internalType": "uint256",
          "name": "price",
          "type": "uint256"
        },
        {
          "indexed": false,
          "internalType": "address",
          "name": "purchaser",
          "type": "address"
        }
      ],
      "name": "RealtyPurchased",
      "type": "event"
    },
    {
      "anonymous": false,
      "inputs": [
        {
          "indexed": true,
          "internalType": "uint256",
          "name": "registryId",
          "type": "uint256"
        },
        {
          "indexed": false,
          "internalType": "enum Registry.RealtyState",
          "name": "newState",
          "type": "uint8"
        }
      ],
      "name": "RealtyStateChanged",
      "type": "event"
    },
    {
      "anonymous": false,
      "inputs": [
        {
          "indexed": true,
          "internalType": "uint256",
          "name": "registryId",
          "type": "uint256"
        },
        {
          "indexed": false,
          "internalType": "address",
          "name": "from",
          "type": "address"
        },
        {
          "indexed": false,
          "internalType": "address",
          "name": "to",
          "type": "address"
        }
      ],
      "name": "RealtyTransferred",
      "type": "event"
    },
    {
      "anonymous": false,
      "inputs": [
        {
          "indexed": true,
          "internalType": "uint256",
          "name": "registryId",
          "type": "uint256"
        },
        {
          "indexed": false,
          "internalType": "address",
          "name": "owner",
          "type": "address"
        }
      ],
      "name": "RegistrationAdded",
      "type": "event"
    },
    {
      "anonymous": false,
      "inputs": [
        {
          "indexed": true,
          "internalType": "uint256",
          "name": "registryId",
          "type": "uint256"
        }
      ],
      "name": "RegistrationRemoved",
      "type": "event"
    },
    {
      "anonymous": false,
      "inputs": [
        {
          "indexed": false,
          "internalType": "address",
          "name": "account",
          "type": "address"
        }
      ],
      "name": "Unpaused",
      "type": "event"
    },
    {
      "inputs": [
        {
          "internalType": "address",
          "name": "",
          "type": "address"
        }
      ],
      "name": "balance",
      "outputs": [
        {
          "internalType": "uint256",
          "name": "",
          "type": "uint256"
        }
      ],
      "stateMutability": "view",
      "type": "function"
    },
    {
      "inputs": [],
      "name": "currentID",
      "outputs": [
        {
          "internalType": "uint256",
          "name": "",
          "type": "uint256"
        }
      ],
      "stateMutability": "view",
      "type": "function"
    },
    {
      "inputs": [
        {
          "internalType": "uint256",
          "name": "",
          "type": "uint256"
        }
      ],
      "name": "idToRealty",
      "outputs": [
        {
          "internalType": "string",
          "name": "streetName",
          "type": "string"
        },
        {
          "internalType": "string",
          "name": "postCode",
          "type": "string"
        },
        {
          "internalType": "string",
          "name": "city",
          "type": "string"
        },
        {
          "internalType": "string",
          "name": "country",
          "type": "string"
        },
        {
          "internalType": "string",
          "name": "realtyType",
          "type": "string"
        },
        {
          "internalType": "uint256",
          "name": "registryId",
          "type": "uint256"
        },
        {
          "internalType": "uint256",
          "name": "price",
          "type": "uint256"
        },
        {
          "internalType": "enum Registry.RealtyState",
          "name": "state",
          "type": "uint8"
        }
      ],
      "stateMutability": "view",
      "type": "function"
    },
    {
      "inputs": [
        {
          "internalType": "uint256",
          "name": "",
          "type": "uint256"
        }
      ],
      "name": "indexOfRealty",
      "outputs": [
        {
          "internalType": "uint256",
          "name": "",
          "type": "uint256"
        }
      ],
      "stateMutability": "view",
      "type": "function"
    },
    {
      "inputs": [],
      "name": "owner",
      "outputs": [
        {
          "internalType": "address",
          "name": "",
          "type": "address"
        }
      ],
      "stateMutability": "view",
      "type": "function"
    },
    {
      "inputs": [
        {
          "internalType": "uint256",
          "name": "",
          "type": "uint256"
        }
      ],
      "name": "ownerOf",
      "outputs": [
        {
          "internalType": "address",
          "name": "",
          "type": "address"
        }
      ],
      "stateMutability": "view",
      "type": "function"
    },
    {
      "inputs": [],
      "name": "paused",
      "outputs": [
        {
          "internalType": "bool",
          "name": "",
          "type": "bool"
        }
      ],
      "stateMutability": "view",
      "type": "function"
    },
    {
      "inputs": [
        {
          "internalType": "address",
          "name": "",
          "type": "address"
        },
        {
          "internalType": "uint256",
          "name": "",
          "type": "uint256"
        }
      ],
      "name": "realtyOwned",
      "outputs": [
        {
          "internalType": "uint256",
          "name": "",
          "type": "uint256"
        }
      ],
      "stateMutability": "view",
      "type": "function"
    },
    {
      "inputs": [],
      "name": "registryCreated",
      "outputs": [
        {
          "internalType": "uint256",
          "name": "",
          "type": "uint256"
        }
      ],
      "stateMutability": "view",
      "type": "function"
    },
    {
      "inputs": [],
      "name": "renounceOwnership",
      "outputs": [],
      "stateMutability": "nonpayable",
      "type": "function"
    },
    {
      "inputs": [],
      "name": "totalRegistrations",
      "outputs": [
        {
          "internalType": "uint256",
          "name": "",
          "type": "uint256"
        }
      ],
      "stateMutability": "view",
      "type": "function"
    },
    {
      "inputs": [
        {
          "internalType": "address",
          "name": "newOwner",
          "type": "address"
        }
      ],
      "name": "transferOwnership",
      "outputs": [],
      "stateMutability": "nonpayable",
      "type": "function"
    },
    {
      "inputs": [
        {
          "internalType": "string",
          "name": "streetName",
          "type": "string"
        },
        {
          "internalType": "string",
          "name": "postCode",
          "type": "string"
        },
        {
          "internalType": "string",
          "name": "city",
          "type": "string"
        },
        {
          "internalType": "string",
          "name": "country",
          "type": "string"
        },
        {
          "internalType": "string",
          "name": "realtyType",
          "type": "string"
        },
        {
          "internalType": "uint256",
          "name": "price",
          "type": "uint256"
        },
        {
          "internalType": "address",
          "name": "owner",
          "type": "address"
        }
      ],
      "name": "register",
      "outputs": [
        {
          "internalType": "uint256",
          "name": "",
          "type": "uint256"
        }
      ],
      "stateMutability": "nonpayable",
      "type": "function"
    },
    {
      "inputs": [
        {
          "internalType": "uint256",
          "name": "registryId",
          "type": "uint256"
        }
      ],
      "name": "deregister",
      "outputs": [],
      "stateMutability": "nonpayable",
      "type": "function"
    },
    {
      "inputs": [
        {
          "internalType": "uint256",
          "name": "registryId",
          "type": "uint256"
        }
      ],
      "name": "purchaseRegistration",
      "outputs": [],
      "stateMutability": "payable",
      "type": "function"
    },
    {
      "inputs": [],
      "name": "withdrawFunds",
      "outputs": [],
      "stateMutability": "nonpayable",
      "type": "function"
    },
    {
      "inputs": [
        {
          "internalType": "uint256",
          "name": "registryId",
          "type": "uint256"
        },
        {
          "internalType": "uint256",
          "name": "price",
          "type": "uint256"
        }
      ],
      "name": "changePrice",
      "outputs": [
        {
          "internalType": "uint256",
          "name": "",
          "type": "uint256"
        }
      ],
      "stateMutability": "nonpayable",
      "type": "function"
    },
    {
      "inputs": [
        {
          "internalType": "uint256",
          "name": "registryId",
          "type": "uint256"
        }
      ],
      "name": "changeAvailability",
      "outputs": [],
      "stateMutability": "nonpayable",
      "type": "function"
    }
  ],
  "bytecode": "0x608060405234801561001057600080fd5b5060006100216100e560201b60201c565b9050806000806101000a81548173ffffffffffffffffffffffffffffffffffffffff021916908373ffffffffffffffffffffffffffffffffffffffff1602179055508073ffffffffffffffffffffffffffffffffffffffff16600073ffffffffffffffffffffffffffffffffffffffff167f8be0079c531659141344cd1fd0a4f28419497f9722a3daafe3b4186f6b6457e060405160405180910390a35060008060146101000a81548160ff021916908315150217905550426008819055506100ed565b600033905090565b612e1880620000fd6000396000f3fe6080604052600436106101095760003560e01c80638da5cb5b11610095578063b88eef5311610064578063b88eef53146109d1578063d1bef835146109fc578063e3d670d714610a37578063f2fde38b14610a9c578063f4f62b6d14610aed57610109565b80638da5cb5b14610550578063a0269af9146105a7578063a8abbcd314610909578063b3de019c1461097857610109565b80636352211e116100dc5780636352211e146101ba5780636493154a1461023557806364a51c16146104bc578063715018a6146104ea578063876b38781461050157610109565b80631a5dbfb41461010e5780631c75cfb41461014957806324600fc3146101745780635c975abb1461018b575b600080fd5b34801561011a57600080fd5b506101476004803603602081101561013157600080fd5b8101908080359060200190929190505050610b18565b005b34801561015557600080fd5b5061015e610d46565b6040518082815260200191505060405180910390f35b34801561018057600080fd5b50610189610d4c565b005b34801561019757600080fd5b506101a0610ed4565b604051808215151515815260200191505060405180910390f35b3480156101c657600080fd5b506101f3600480360360208110156101dd57600080fd5b8101908080359060200190929190505050610eea565b604051808273ffffffffffffffffffffffffffffffffffffffff1673ffffffffffffffffffffffffffffffffffffffff16815260200191505060405180910390f35b34801561024157600080fd5b5061026e6004803603602081101561025857600080fd5b8101908080359060200190929190505050610f1d565b60405180806020018060200180602001806020018060200189815260200188815260200187600181111561029e57fe5b60ff16815260200186810386528e818151815260200191508051906020019080838360005b838110156102de5780820151818401526020810190506102c3565b50505050905090810190601f16801561030b5780820380516001836020036101000a031916815260200191505b5086810385528d818151815260200191508051906020019080838360005b83811015610344578082015181840152602081019050610329565b50505050905090810190601f1680156103715780820380516001836020036101000a031916815260200191505b5086810384528c818151815260200191508051906020019080838360005b838110156103aa57808201518184015260208101905061038f565b50505050905090810190601f1680156103d75780820380516001836020036101000a031916815260200191505b5086810383528b818151815260200191508051906020019080838360005b838110156104105780820151818401526020810190506103f5565b50505050905090810190601f16801561043d5780820380516001836020036101000a031916815260200191505b5086810382528a818151815260200191508051906020019080838360005b8381101561047657808201518184015260208101905061045b565b50505050905090810190601f1680156104a35780820380516001836020036101000a031916815260200191505b509d505050505050505050505050505060405180910390f35b6104e8600480360360208110156104d257600080fd5b810190808035906020019092919050505061126a565b005b3480156104f657600080fd5b506104ff6119f7565b005b34801561050d57600080fd5b5061053a6004803603602081101561052457600080fd5b8101908080359060200190929190505050611b7f565b6040518082815260200191505060405180910390f35b34801561055c57600080fd5b50610565611b97565b604051808273ffffffffffffffffffffffffffffffffffffffff1673ffffffffffffffffffffffffffffffffffffffff16815260200191505060405180910390f35b3480156105b357600080fd5b506108f3600480360360e08110156105ca57600080fd5b81019080803590602001906401000000008111156105e757600080fd5b8201836020820111156105f957600080fd5b8035906020019184600183028401116401000000008311171561061b57600080fd5b91908080601f016020809104026020016040519081016040528093929190818152602001838380828437600081840152601f19601f8201169050808301925050505050505091929192908035906020019064010000000081111561067e57600080fd5b82018360208201111561069057600080fd5b803590602001918460018302840111640100000000831117156106b257600080fd5b91908080601f016020809104026020016040519081016040528093929190818152602001838380828437600081840152601f19601f8201169050808301925050505050505091929192908035906020019064010000000081111561071557600080fd5b82018360208201111561072757600080fd5b8035906020019184600183028401116401000000008311171561074957600080fd5b91908080601f016020809104026020016040519081016040528093929190818152602001838380828437600081840152601f19601f820116905080830192505050505050509192919290803590602001906401000000008111156107ac57600080fd5b8201836020820111156107be57600080fd5b803590602001918460018302840111640100000000831117156107e057600080fd5b91908080601f016020809104026020016040519081016040528093929190818152602001838380828437600081840152601f19601f8201169050808301925050505050505091929192908035906020019064010000000081111561084357600080fd5b82018360208201111561085557600080fd5b8035906020019184600183028401116401000000008311171561087757600080fd5b91908080601f016020809104026020016040519081016040528093929190818152602001838380828437600081840152601f19601f82011690508083019250505050505050919291929080359060200190929190803573ffffffffffffffffffffffffffffffffffffffff169060200190929190505050611bc0565b6040518082815260200191505060405180910390f35b34801561091557600080fd5b506109626004803603604081101561092c57600080fd5b81019080803573ffffffffffffffffffffffffffffffffffffffff16906020019092919080359060200190929190505050611d44565b6040518082815260200191505060405180910390f35b34801561098457600080fd5b506109bb6004803603604081101561099b57600080fd5b810190808035906020019092919080359060200190929190505050611d72565b6040518082815260200191505060405180910390f35b3480156109dd57600080fd5b506109e6611f65565b6040518082815260200191505060405180910390f35b348015610a0857600080fd5b50610a3560048036036020811015610a1f57600080fd5b8101908080359060200190929190505050611f6b565b005b348015610a4357600080fd5b50610a8660048036036020811015610a5a57600080fd5b81019080803573ffffffffffffffffffffffffffffffffffffffff1690602001909291905050506121d6565b6040518082815260200191505060405180910390f35b348015610aa857600080fd5b50610aeb60048036036020811015610abf57600080fd5b81019080803573ffffffffffffffffffffffffffffffffffffffff1690602001909291905050506121ee565b005b348015610af957600080fd5b50610b026123fb565b6040518082815260200191505060405180910390f35b600060149054906101000a900460ff1615610b9b576040517f08c379a00000000000000000000000000000000000000000000000000000000081526004018080602001828103825260108152602001807f5061757361626c653a207061757365640000000000000000000000000000000081525060200191505060405180910390fd5b610ba3612401565b73ffffffffffffffffffffffffffffffffffffffff166000809054906101000a900473ffffffffffffffffffffffffffffffffffffffff1673ffffffffffffffffffffffffffffffffffffffff1614610c64576040517f08c379a00000000000000000000000000000000000000000000000000000000081526004018080602001828103825260208152602001807f4f776e61626c653a2063616c6c6572206973206e6f7420746865206f776e657281525060200191505060405180910390fd5b600073ffffffffffffffffffffffffffffffffffffffff166002600083815260200190815260200160002060009054906101000a900473ffffffffffffffffffffffffffffffffffffffff1673ffffffffffffffffffffffffffffffffffffffff161415610d3a576040517f08c379a00000000000000000000000000000000000000000000000000000000081526004018080602001828103825260188152602001807f5265616c7479206973206e6f742072656769737465726564000000000000000081525060200191505060405180910390fd5b610d4381612409565b50565b60075481565b6000600560003373ffffffffffffffffffffffffffffffffffffffff1673ffffffffffffffffffffffffffffffffffffffff1681526020019081526020016000205411610e01576040517f08c379a000000000000000000000000000000000000000000000000000000000815260040180806020018281038252601e8152602001807f496e73756666696369656e742066756e647320746f207769746864726177000081525060200191505060405180910390fd5b6000600560003373ffffffffffffffffffffffffffffffffffffffff1673ffffffffffffffffffffffffffffffffffffffff1681526020019081526020016000205490506000600560003373ffffffffffffffffffffffffffffffffffffffff1673ffffffffffffffffffffffffffffffffffffffff168152602001908152602001600020819055503373ffffffffffffffffffffffffffffffffffffffff166108fc829081150290604051600060405180830381858888f19350505050158015610ed0573d6000803e3d6000fd5b5050565b60008060149054906101000a900460ff16905090565b60026020528060005260406000206000915054906101000a900473ffffffffffffffffffffffffffffffffffffffff1681565b6001602052806000526040600020600091509050806000018054600181600116156101000203166002900480601f016020809104026020016040519081016040528092919081815260200182805460018160011615610100020316600290048015610fc95780601f10610f9e57610100808354040283529160200191610fc9565b820191906000526020600020905b815481529060010190602001808311610fac57829003601f168201915b505050505090806001018054600181600116156101000203166002900480601f0160208091040260200160405190810160405280929190818152602001828054600181600116156101000203166002900480156110675780601f1061103c57610100808354040283529160200191611067565b820191906000526020600020905b81548152906001019060200180831161104a57829003601f168201915b505050505090806002018054600181600116156101000203166002900480601f0160208091040260200160405190810160405280929190818152602001828054600181600116156101000203166002900480156111055780601f106110da57610100808354040283529160200191611105565b820191906000526020600020905b8154815290600101906020018083116110e857829003601f168201915b505050505090806003018054600181600116156101000203166002900480601f0160208091040260200160405190810160405280929190818152602001828054600181600116156101000203166002900480156111a35780601f10611178576101008083540402835291602001916111a3565b820191906000526020600020905b81548152906001019060200180831161118657829003601f168201915b505050505090806004018054600181600116156101000203166002900480601f0160208091040260200160405190810160405280929190818152602001828054600181600116156101000203166002900480156112415780601f1061121657610100808354040283529160200191611241565b820191906000526020600020905b81548152906001019060200180831161122457829003601f168201915b5050505050908060050154908060060154908060070160009054906101000a900460ff16905088565b600060149054906101000a900460ff16156112ed576040517f08c379a00000000000000000000000000000000000000000000000000000000081526004018080602001828103825260108152602001807f5061757361626c653a207061757365640000000000000000000000000000000081525060200191505060405180910390fd5b6112f5612be6565b6001600083815260200190815260200160002060405180610100016040529081600082018054600181600116156101000203166002900480601f0160208091040260200160405190810160405280929190818152602001828054600181600116156101000203166002900480156113ad5780601f10611382576101008083540402835291602001916113ad565b820191906000526020600020905b81548152906001019060200180831161139057829003601f168201915b50505050508152602001600182018054600181600116156101000203166002900480601f01602080910402602001604051908101604052809291908181526020018280546001816001161561010002031660029004801561144f5780601f106114245761010080835404028352916020019161144f565b820191906000526020600020905b81548152906001019060200180831161143257829003601f168201915b50505050508152602001600282018054600181600116156101000203166002900480601f0160208091040260200160405190810160405280929190818152602001828054600181600116156101000203166002900480156114f15780601f106114c6576101008083540402835291602001916114f1565b820191906000526020600020905b8154815290600101906020018083116114d457829003601f168201915b50505050508152602001600382018054600181600116156101000203166002900480601f0160208091040260200160405190810160405280929190818152602001828054600181600116156101000203166002900480156115935780601f1061156857610100808354040283529160200191611593565b820191906000526020600020905b81548152906001019060200180831161157657829003601f168201915b50505050508152602001600482018054600181600116156101000203166002900480601f0160208091040260200160405190810160405280929190818152602001828054600181600116156101000203166002900480156116355780601f1061160a57610100808354040283529160200191611635565b820191906000526020600020905b81548152906001019060200180831161161857829003601f168201915b5050505050815260200160058201548152602001600682015481526020016007820160009054906101000a900460ff16600181111561167057fe5b600181111561167b57fe5b8152505090506000600181111561168e57fe5b8160e00151600181111561169e57fe5b14611711576040517f08c379a00000000000000000000000000000000000000000000000000000000081526004018080602001828103825260168152602001807f5265616c7479206973206e6f7420666f722073616c650000000000000000000081525060200191505060405180910390fd5b8060c0015134101561176e576040517f08c379a000000000000000000000000000000000000000000000000000000000815260040180806020018281038252602a815260200180612d73602a913960400191505060405180910390fd5b60006002600084815260200190815260200160002060009054906101000a900473ffffffffffffffffffffffffffffffffffffffff169050600033905060008360c0015190506117bf838387612515565b80600560008573ffffffffffffffffffffffffffffffffffffffff1673ffffffffffffffffffffffffffffffffffffffff1681526020019081526020016000205401600560008573ffffffffffffffffffffffffffffffffffffffff1673ffffffffffffffffffffffffffffffffffffffff168152602001908152602001600020819055508360c001513411156119365760008460c00151340390508460c0015134600560008673ffffffffffffffffffffffffffffffffffffffff1673ffffffffffffffffffffffffffffffffffffffff168152602001908152602001600020540103600560008573ffffffffffffffffffffffffffffffffffffffff1673ffffffffffffffffffffffffffffffffffffffff168152602001908152602001600020819055508273ffffffffffffffffffffffffffffffffffffffff167f7e65965f50afb764ce4f9f36e2c26d1fd0659807dbf4a82f4251fea481b68b88826040518082815260200191505060405180910390a2505b8273ffffffffffffffffffffffffffffffffffffffff167f7e65965f50afb764ce4f9f36e2c26d1fd0659807dbf4a82f4251fea481b68b88826040518082815260200191505060405180910390a2847fed7fc3a08fb5437f8a1a3c0a5fb47b5d5c2796ada719baa879aead86987d27148284604051808381526020018273ffffffffffffffffffffffffffffffffffffffff1673ffffffffffffffffffffffffffffffffffffffff1681526020019250505060405180910390a25050505050565b6119ff612401565b73ffffffffffffffffffffffffffffffffffffffff166000809054906101000a900473ffffffffffffffffffffffffffffffffffffffff1673ffffffffffffffffffffffffffffffffffffffff1614611ac0576040517f08c379a00000000000000000000000000000000000000000000000000000000081526004018080602001828103825260208152602001807f4f776e61626c653a2063616c6c6572206973206e6f7420746865206f776e657281525060200191505060405180910390fd5b600073ffffffffffffffffffffffffffffffffffffffff166000809054906101000a900473ffffffffffffffffffffffffffffffffffffffff1673ffffffffffffffffffffffffffffffffffffffff167f8be0079c531659141344cd1fd0a4f28419497f9722a3daafe3b4186f6b6457e060405160405180910390a360008060006101000a81548173ffffffffffffffffffffffffffffffffffffffff021916908373ffffffffffffffffffffffffffffffffffffffff160217905550565b60046020528060005260406000206000915090505481565b60008060009054906101000a900473ffffffffffffffffffffffffffffffffffffffff16905090565b60008060149054906101000a900460ff1615611c44576040517f08c379a00000000000000000000000000000000000000000000000000000000081526004018080602001828103825260108152602001807f5061757361626c653a207061757365640000000000000000000000000000000081525060200191505060405180910390fd5b611c4c612401565b73ffffffffffffffffffffffffffffffffffffffff166000809054906101000a900473ffffffffffffffffffffffffffffffffffffffff1673ffffffffffffffffffffffffffffffffffffffff1614611d0d576040517f08c379a00000000000000000000000000000000000000000000000000000000081526004018080602001828103825260208152602001807f4f776e61626c653a2063616c6c6572206973206e6f7420746865206f776e657281525060200191505060405180910390fd5b6000611d2189898989898989600754612830565b905060076000815480929190600101919050555080915050979650505050505050565b60036020528160005260406000208181548110611d5d57fe5b90600052602060002001600091509150505481565b60008060149054906101000a900460ff1615611df6576040517f08c379a00000000000000000000000000000000000000000000000000000000081526004018080602001828103825260108152602001807f5061757361626c653a207061757365640000000000000000000000000000000081525060200191505060405180910390fd5b823373ffffffffffffffffffffffffffffffffffffffff166002600083815260200190815260200160002060009054906101000a900473ffffffffffffffffffffffffffffffffffffffff1673ffffffffffffffffffffffffffffffffffffffff1614611eae576040517f08c379a0000000000000000000000000000000000000000000000000000000008152600401808060200182810382526029815260200180612d4a6029913960400191505060405180910390fd5b6000831015611f08576040517f08c379a0000000000000000000000000000000000000000000000000000000008152600401808060200182810382526023815260200180612dc06023913960400191505060405180910390fd5b826001600086815260200190815260200160002060060181905550837f0d54357db3b50f8312e1a4f4d1b7ccc7883507b02dc525c6815018a16292e892846040518082815260200191505060405180910390a28291505092915050565b60085481565b600060149054906101000a900460ff1615611fee576040517f08c379a00000000000000000000000000000000000000000000000000000000081526004018080602001828103825260108152602001807f5061757361626c653a207061757365640000000000000000000000000000000081525060200191505060405180910390fd5b803373ffffffffffffffffffffffffffffffffffffffff166002600083815260200190815260200160002060009054906101000a900473ffffffffffffffffffffffffffffffffffffffff1673ffffffffffffffffffffffffffffffffffffffff16146120a6576040517f08c379a0000000000000000000000000000000000000000000000000000000008152600401808060200182810382526029815260200180612d4a6029913960400191505060405180910390fd5b60006001600084815260200190815260200160002060070160009054906101000a900460ff169050600060018111156120db57fe5b8160018111156120e757fe5b141561212957600180600085815260200190815260200160002060070160006101000a81548160ff0219169083600181111561211f57fe5b0217905550612162565b60006001600085815260200190815260200160002060070160006101000a81548160ff0219169083600181111561215c57fe5b02179055505b60006001600085815260200190815260200160002060070160009054906101000a900460ff169050837fbda900fa0566660bc6991188114d77df41ac39820bcf3cd0c12bad98c895460182604051808260018111156121bd57fe5b60ff16815260200191505060405180910390a250505050565b60056020528060005260406000206000915090505481565b6121f6612401565b73ffffffffffffffffffffffffffffffffffffffff166000809054906101000a900473ffffffffffffffffffffffffffffffffffffffff1673ffffffffffffffffffffffffffffffffffffffff16146122b7576040517f08c379a00000000000000000000000000000000000000000000000000000000081526004018080602001828103825260208152602001807f4f776e61626c653a2063616c6c6572206973206e6f7420746865206f776e657281525060200191505060405180910390fd5b600073ffffffffffffffffffffffffffffffffffffffff168173ffffffffffffffffffffffffffffffffffffffff16141561233d576040517f08c379a0000000000000000000000000000000000000000000000000000000008152600401808060200182810382526026815260200180612d246026913960400191505060405180910390fd5b8073ffffffffffffffffffffffffffffffffffffffff166000809054906101000a900473ffffffffffffffffffffffffffffffffffffffff1673ffffffffffffffffffffffffffffffffffffffff167f8be0079c531659141344cd1fd0a4f28419497f9722a3daafe3b4186f6b6457e060405160405180910390a3806000806101000a81548173ffffffffffffffffffffffffffffffffffffffff021916908373ffffffffffffffffffffffffffffffffffffffff16021790555050565b60065481565b600033905090565b61241281612a4c565b6002600082815260200190815260200160002060006101000a81549073ffffffffffffffffffffffffffffffffffffffff0219169055600160008281526020019081526020016000206000808201600061246c9190612c36565b60018201600061247c9190612c36565b60028201600061248c9190612c36565b60038201600061249c9190612c36565b6004820160006124ac9190612c36565b600582016000905560068201600090556007820160006101000a81549060ff02191690555050807fd6a1c8b5011e804d907e2bc102d6553f8462d0f0020e1b8361998a71cdf58e3f60405160405180910390a26006600081548092919060019003919050555050565b600073ffffffffffffffffffffffffffffffffffffffff168373ffffffffffffffffffffffffffffffffffffffff16141561259b576040517f08c379a0000000000000000000000000000000000000000000000000000000008152600401808060200182810382526023815260200180612d9d6023913960400191505060405180910390fd5b600073ffffffffffffffffffffffffffffffffffffffff168273ffffffffffffffffffffffffffffffffffffffff161415612621576040517f08c379a0000000000000000000000000000000000000000000000000000000008152600401808060200182810382526023815260200180612d9d6023913960400191505060405180910390fd5b600073ffffffffffffffffffffffffffffffffffffffff166002600083815260200190815260200160002060009054906101000a900473ffffffffffffffffffffffffffffffffffffffff1673ffffffffffffffffffffffffffffffffffffffff1614156126f7576040517f08c379a00000000000000000000000000000000000000000000000000000000081526004018080602001828103825260188152602001807f5265616c7479206973206e6f742072656769737465726564000000000000000081525060200191505060405180910390fd5b61270081612a4c565b61270a8183612b54565b816002600083815260200190815260200160002060006101000a81548173ffffffffffffffffffffffffffffffffffffffff021916908373ffffffffffffffffffffffffffffffffffffffff160217905550600180600083815260200190815260200160002060070160006101000a81548160ff0219169083600181111561278e57fe5b0217905550807fe4a7657b912e852da3e37e1bed15f3b334016321e60f8f8c1ef9fdf1e591f7e68484604051808373ffffffffffffffffffffffffffffffffffffffff1673ffffffffffffffffffffffffffffffffffffffff1681526020018273ffffffffffffffffffffffffffffffffffffffff1673ffffffffffffffffffffffffffffffffffffffff1681526020019250505060405180910390a2505050565b600061283a612be6565b6040518061010001604052808b81526020018a8152602001898152602001888152602001878152602001600754815260200186815260200160018081111561287e57fe5b81525090508060016000600754815260200190815260200160002060008201518160000190805190602001906128b5929190612c7e565b5060208201518160010190805190602001906128d2929190612c7e565b5060408201518160020190805190602001906128ef929190612c7e565b50606082015181600301908051906020019061290c929190612c7e565b506080820151816004019080519060200190612929929190612c7e565b5060a0820151816005015560c0820151816006015560e08201518160070160006101000a81548160ff0219169083600181111561296257fe5b02179055509050506129748385612b54565b836002600085815260200190815260200160002060006101000a81548173ffffffffffffffffffffffffffffffffffffffff021916908373ffffffffffffffffffffffffffffffffffffffff160217905550827f1906dac4b17e48fb345a207ed079196e3dfcb8584f4de575ce8de99a99779eed85604051808273ffffffffffffffffffffffffffffffffffffffff1673ffffffffffffffffffffffffffffffffffffffff16815260200191505060405180910390a26006600081548092919060010191905055508291505098975050505050505050565b60006002600083815260200190815260200160002060009054906101000a900473ffffffffffffffffffffffffffffffffffffffff1690506000600460008481526020019081526020016000205490506000600360008473ffffffffffffffffffffffffffffffffffffffff1673ffffffffffffffffffffffffffffffffffffffff168152602001908152602001600020905080600182805490500381548110612af257fe5b9060005260206000200154818381548110612b0957fe5b906000526020600020018190555080805480612b2157fe5b60019003818190600052602060002001600090559055600460008581526020019081526020016000206000905550505050565b6000600360008373ffffffffffffffffffffffffffffffffffffffff1673ffffffffffffffffffffffffffffffffffffffff16815260200190815260200160002090506000818054905090508184908060018154018082558091505060019003906000526020600020016000909190919091505580600460008681526020019081526020016000208190555050505050565b6040518061010001604052806060815260200160608152602001606081526020016060815260200160608152602001600081526020016000815260200160006001811115612c3057fe5b81525090565b50805460018160011615610100020316600290046000825580601f10612c5c5750612c7b565b601f016020900490600052602060002090810190612c7a9190612cfe565b5b50565b828054600181600116156101000203166002900490600052602060002090601f016020900481019282601f10612cbf57805160ff1916838001178555612ced565b82800160010185558215612ced579182015b82811115612cec578251825591602001919060010190612cd1565b5b509050612cfa9190612cfe565b5090565b612d2091905b80821115612d1c576000816000905550600101612d04565b5090565b9056fe4f776e61626c653a206e6577206f776e657220697320746865207a65726f20616464726573734d73672073656e646572206973206e6f7420746865206f776e6572206f6620746865205265616c7479496e73756666696369656e742076616c75652073656e7420746f207075726368617365207265616c74794d6574686f642063616c6c6564207769746820746865207a65726f20616464726573734d6574686f642063616c6c6564207769746820616e20696e76616c6964207072696365a2646970667358221220679ad7912c9bc92ac49a7f2307767432e009573320362a17ad99f5fef1fc78a964736f6c63430006020033",
  "source": "pragma solidity ^0.6.2;\n\nimport \"@openzeppelin/contracts/access/Ownable.sol\";\nimport \"@openzeppelin/contracts/utils/Address.sol\";\nimport \"@openzeppelin/contracts/utils/Pausable.sol\";\n\n\ncontract Registry is Ownable, Pausable {\n    using Address for address;\n\n    event RegistrationAdded(uint indexed registryId, address owner);\n    event RegistrationRemoved(uint indexed registryId);\n\n    event RealtyTransferred(uint indexed registryId, address from, address to);\n    event RealtyPurchased(uint indexed registryId, uint price, address purchaser);\n    event RealtyPriceUpdated(uint indexed registryId, uint price);\n    event RealtyStateChanged(uint indexed registryId, RealtyState newState);\n\n    event FundsDeposited(uint amount, address indexed sender);\n    event FundsWithdrawn(uint amount, address indexed withdrawer);\n\n    mapping(uint => Realty) public idToRealty;\n    mapping(uint => address) public ownerOf;\n    mapping(address => uint[]) public realtyOwned;\n    mapping(uint => uint) public indexOfRealty;\n    mapping(address => uint) public balance;\n\n    uint public totalRegistrations;\n    uint public currentID;\n    uint public registryCreated;\n\n    enum RealtyState {Available, NotAvailable}\n\n    struct Realty {\n        string streetName;\n        string postCode;\n        string city;\n        string country;\n        string realtyType;\n        uint registryId;\n        uint price;\n        RealtyState state;\n    }\n\n    constructor() public {\n        registryCreated = now;\n    }\n\n    modifier onlyRealtyOwner(uint registryId) {\n        require(ownerOf[registryId] == msg.sender, \"Msg sender is not the owner of the Realty\");\n        _;\n    }\n\n    function register(\n        string memory streetName,\n        string memory postCode,\n        string memory city,\n        string memory country,\n        string memory realtyType,\n        uint price,\n        address owner\n    ) public whenNotPaused() onlyOwner() returns (uint) {\n        uint id = _register(streetName, postCode, city, country, realtyType, price, owner, currentID);\n\n        currentID++;\n\n        return id;\n    }\n\n    function deregister(uint registryId) public whenNotPaused() onlyOwner() {\n        require(ownerOf[registryId] != address(0), \"Realty is not registered\");\n        _deregister(registryId);\n    }\n\n    function purchaseRegistration(uint registryId) public payable whenNotPaused() {\n        Realty memory currentRealty = idToRealty[registryId];\n        require(currentRealty.state == RealtyState.Available, \"Realty is not for sale\");\n        require(msg.value >= currentRealty.price, \"Insufficient value sent to purchase realty\");\n\n        address currentOwner = ownerOf[registryId];\n        address purchaser = msg.sender;\n        uint purchasedPrice = currentRealty.price;\n\n        _transferOwner(currentOwner, purchaser, registryId);\n\n        balance[currentOwner] = balance[currentOwner] + purchasedPrice;\n\n        if (msg.value > currentRealty.price) {\n            uint excessValue = msg.value - currentRealty.price;\n            balance[purchaser] = balance[purchaser] + msg.value - currentRealty.price;\n            emit FundsDeposited(excessValue, purchaser);\n        }\n\n        emit FundsDeposited(purchasedPrice, currentOwner);\n        emit RealtyPurchased(registryId, purchasedPrice, purchaser);\n    }\n\n    function withdrawFunds() public {\n        require(balance[msg.sender] > 0, \"Insufficient funds to withdraw\");\n        uint amount = balance[msg.sender];\n        balance[msg.sender] = 0;\n        msg.sender.transfer(amount);\n    }\n\n    function changePrice(uint registryId, uint price) public whenNotPaused() onlyRealtyOwner(registryId) returns (uint) {\n        require(price >= 0, \"Method called with an invalid price\");\n        idToRealty[registryId].price = price;\n        emit RealtyPriceUpdated(registryId, price);\n        return price;\n    }\n\n    function changeAvailability(uint registryId) public whenNotPaused() onlyRealtyOwner(registryId) {\n        RealtyState currentState = idToRealty[registryId].state;\n\n        if (currentState == RealtyState.Available) {\n            idToRealty[registryId].state = RealtyState.NotAvailable;\n        } else {\n            idToRealty[registryId].state = RealtyState.Available;\n        }\n\n        RealtyState newState = idToRealty[registryId].state;\n\n        emit RealtyStateChanged(registryId, newState);\n    }\n\n    function _transferOwner(\n        address from,\n        address to,\n        uint registryId\n    ) private {\n        require(from != address(0), \"Method called with the zero address\");\n        require(to != address(0), \"Method called with the zero address\");\n        require(ownerOf[registryId] != address(0), \"Realty is not registered\");\n\n        _removeRealtyFromOwned(registryId);\n        _addRealtyToOwned(registryId, to);\n        ownerOf[registryId] = to;\n\n        idToRealty[registryId].state = RealtyState.NotAvailable;\n\n        emit RealtyTransferred(registryId, from, to);\n    }\n\n    function _register(\n        string memory streetName,\n        string memory postCode,\n        string memory city,\n        string memory country,\n        string memory realtyType,\n        uint price,\n        address owner,\n        uint registryId\n    ) private returns (uint) {\n        Realty memory registeredRealty = Realty(\n            streetName,\n            postCode,\n            city,\n            country,\n            realtyType,\n            currentID,\n            price,\n            RealtyState.NotAvailable\n        );\n\n        idToRealty[currentID] = registeredRealty;\n        _addRealtyToOwned(registryId, owner);\n\n        ownerOf[registryId] = owner;\n\n        emit RegistrationAdded(registryId, owner);\n\n        totalRegistrations++;\n\n        return registryId;\n    }\n\n    function _deregister(uint registryId) private {\n        _removeRealtyFromOwned(registryId);\n\n        delete ownerOf[registryId];\n\n        delete idToRealty[registryId];\n\n        emit RegistrationRemoved(registryId);\n\n        totalRegistrations--;\n    }\n\n    function _removeRealtyFromOwned(uint registryId) private {\n        address previousOwner = ownerOf[registryId];\n        uint index = indexOfRealty[registryId];\n\n        uint[] storage ownedAssets = realtyOwned[previousOwner];\n\n        ownedAssets[index] = ownedAssets[ownedAssets.length - 1];\n\n        ownedAssets.pop();\n        delete indexOfRealty[registryId];\n    }\n\n    function _addRealtyToOwned(uint registryId, address newOwner) private {\n        uint[] storage previousRealtyOwned = realtyOwned[newOwner];\n        uint index = previousRealtyOwned.length;\n\n        previousRealtyOwned.push(registryId);\n\n        indexOfRealty[registryId] = index;\n    }\n}\n",
  "sourcePath": "/Users/andytcf/consensys-final-project/contracts/Registry.sol",
  "compiler": {
    "name": "solc",
    "version": "0.6.2+commit.bacdbe57.Emscripten.clang"
  },
  "schemaVersion": "3.3.0",
  "updatedAt": "2020-11-29T10:50:52.094Z",
  "devdoc": {
    "methods": {
      "owner()": {
        "details": "Returns the address of the current owner."
      },
      "paused()": {
        "details": "Returns true if the contract is paused, and false otherwise."
      },
      "renounceOwnership()": {
        "details": "Leaves the contract without owner. It will not be possible to call `onlyOwner` functions anymore. Can only be called by the current owner.     * NOTE: Renouncing ownership will leave the contract without an owner, thereby removing any functionality that is only available to the owner."
      },
      "transferOwnership(address)": {
        "details": "Transfers ownership of the contract to a new account (`newOwner`). Can only be called by the current owner."
      }
    }
  },
  "userdoc": {
    "methods": {}
  }
}